:100000000C9463000C948B000C948B000C948B006C
:100010000C948B000C948B000C948B000C948B0034
:100020000C948B000C948B000C948B000C948B0024
:100030000C948B000C948B000C948B000C948B0014
:100040000C942E0A0C948B000C94FC090C94D60989
:100050000C948B000C948B000C948B000C948B00F4
:100060000C948B000C948B000000000024002700EF
:100070002A0000000000250028002B0000000000DE
:1000800023002600290004040404040404040202DA
:100090000202020203030303030301020408102007
:1000A0004080010204081020010204081020000012
:1000B0000008000201000003040700000000000027
:1000C0000000780A980B11241FBECFEFD8E0DEBFE6
:1000D000CDBF24E0A2EAB3E001C01D92A93AB20765
:1000E000E1F713E0A0E0B1E0EAEAFCE102C005902C
:1000F0000D92A23AB107D9F710E0C2E6D0E004C0F1
:100100002197FE010E94500CC136D107C9F70E9409
:10011000BC0A0C94480E0C940000ECEBF3E0A089B0
:10012000B18982E08C93A485B5851C92A685B7859C
:100130008FEC8C93108EA489B58986E08C93A2896C
:10014000B3898C9180618C93A289B3898C918860EA
:100150008C93A289B3898C9180688C930288F389EF
:10016000E02D80818F7D80830895AF92BF92CF92E2
:10017000DF92EF92FF920F931F93CF93DF936C0167
:100180007B018B01040F151FEB015E01AE18BF0848
:10019000C017D10759F06991D601ED91FC910190FA
:1001A000F081E02DC6010995892B79F7C501DF9112
:1001B000CF911F910F91FF90EF90DF90CF90BF9064
:1001C000AF900895FC01538D448D252F30E0842F8E
:1001D00090E0821B930B541710F0CF96089501976F
:1001E0000895FC01918D828D981761F0A28DAE0F5C
:1001F000BF2FB11D5D968C91928D9F5F9F73928FE3
:1002000090E008958FEF9FEF0895FC01918D828D0E
:10021000981731F0828DE80FF11D858D90E00895DB
:100220008FEF9FEF0895FC01918D228D892F90E033
:10023000805C9F4F821B91098F73992708958CEBE7
:1002400093E00E94130121E0892B09F420E0822F22
:10025000089580E090E0892B29F00E941F01811110
:100260000C9400000895FC01A48DA80FB92FB11DB6
:10027000A35ABF4F2C91848D90E001968F739927DC
:10028000848FA689B7892C93A089B1898C918370BA
:1002900080648C93938D848D981306C00288F389B3
:1002A000E02D80818F7D80830895EF92FF920F93E0
:1002B0001F93CF93DF93EC0181E0888F9B8D8C8D12
:1002C00098131AC0E889F989808185FF15C09FB706
:1002D000F894EE89FF896083E889F98980818370C9
:1002E000806480839FBF81E090E0DF91CF911F9178
:1002F0000F91FF90EF900895F62E0B8D10E00F5F99
:100300001F4F0F731127E02E8C8D8E110CC00FB66E
:1003100007FCFACFE889F989808185FFF5CFCE0106
:100320000E943301F1CFEB8DEC0FFD2FF11DE35A4D
:10033000FF4FF0829FB7F8940B8FEA89FB89808189
:100340008062CFCFCF93DF93EC01888D8823B9F003
:10035000AA89BB89E889F9898C9185FD03C08081D0
:1003600086FD0DC00FB607FCF7CF8C9185FFF2CF4D
:10037000808185FFEDCFCE010E943301E9CFDF916F
:10038000CF910895833081F028F4813099F0823044
:10039000A9F008958730A9F08830C9F08430B1F40D
:1003A000809180008F7D03C0809180008F77809343
:1003B0008000089584B58F7784BD089584B58F7DBE
:1003C000FBCF8091B0008F778093B000089580912B
:1003D000B0008F7DF9CFCF93DF93282F30E0F90164
:1003E000E255FF4F8491F901E656FF4FD491F90190
:1003F000EA57FF4FC491CC23A1F081110E94C201A2
:10040000EC2FF0E0EE0FFF1FE458FF4FA591B491E1
:10041000EC91ED2381E090E009F480E0DF91CF9151
:10042000089580E090E0FACF1F93CF93DF93282FB9
:1004300030E0F901E255FF4F8491F901E656FF4F94
:10044000D491F901EA57FF4FC491CC23A9F0162F9C
:1004500081110E94C201EC2FF0E0EE0FFF1FEE5859
:10046000FF4FA591B4918FB7F894EC91111108C08A
:10047000D095DE23DC938FBFDF91CF911F9108953C
:10048000DE2BF8CF0F931F93CF93DF938B01EA01FD
:1004900021E08227682F86E00E941402B80181E0E3
:1004A000682787E00E941402BE0121E0622788E0ED
:1004B0000E94140261E089E0DF91CF911F910F91BA
:1004C0000C941402CF93DF9390E0FC01E656FF4FAB
:1004D00024918A579F4FFC0184918823D1F090E0AA
:1004E000880F991FFC01E859FF4FA591B491FC01B9
:1004F000EE58FF4FC591D49161110EC09FB7F8948B
:100500008C91E22FE0958E238C932881E223E8835F
:100510009FBFDF91CF9108958FB7F894EC91E22BB4
:10052000EC938FBFF6CF3FB7F8948091B0039091D2
:10053000B103A091B203B091B30326B5A89B05C047
:100540002F3F19F00196A11DB11D3FBFBA2FA92F52
:10055000982F8827BC01CD01620F711D811D911D4F
:1005600042E0660F771F881F991F4A95D1F70895BB
:100570008F929F92AF92BF92CF92DF92EF92FF92B3
:100580004B015C010E9493026B017C010E9493026B
:100590006C197D098E099F09683E7340810591059C
:1005A000A8F321E0821A9108A108B10888EEC80ECC
:1005B00083E0D81EE11CF11C81149104A104B10454
:1005C00029F7FF90EF90DF90CF90BF90AF909F9072
:1005D0008F9008952FB7F8946091AC037091AD039C
:1005E0008091AE039091AF032FBF0895FC0101905D
:1005F0000020E9F73197AF01481B590BBC018CEB88
:1006000093E00C94B5008F929F92AF92BF920F939C
:100610001F93CF93DF93CDB7DEB7A1970FB6F894B2
:10062000DEBF0FBECDBF19A2423008F44AE08E01F2
:100630000F5D1F4F842E912CB12CA12CA50194018C
:100640000E94F70BE62FB901CA01EA30F4F4E05D2D
:10065000D801EE938D01232B242B252B79F790E0E5
:1006600080E0109719F0CD010E94F602A1960FB616
:10067000F894DEBF0FBECDBFDF91CF911F910F91D8
:10068000BF90AF909F908F900895E95CE1CF89E192
:1006900091E00E94F60281E291E00E94F60261E0A0
:1006A00089E00E94140260ED77E080E090E00E9413
:1006B000B80260E089E00C941402FC014481558189
:1006C000608171818CEB93E00E94B50081E291E042
:1006D0000E94F60264E670E080E090E00C94B802BC
:1006E000EF92FF920F931F93CF93DF9300D000D030
:1006F000CDB7DEB78CEB93E00E94F1008CEB93E07A
:100700000E94F1008E010F5F1F4F78018A3341F084
:10071000F80181938F018CEB93E00E94F100F6CFFA
:10072000C7010E949C0B182F8CEB93E00E94F100F4
:100730008053990B8230910520F4682F812F0E94FD
:1007400014028CEB93E00E94F1008A3011F08D309E
:10075000C1F78CEB93E00E9405018A3021F48CEB09
:1007600093E00E94F1000F900F900F900F90DF9197
:10077000CF911F910F91FF90EF9008950F931F93CA
:10078000CF93DF93EC0188819981009759F02A81FA
:100790003B812617370730F081E0DF91CF911F9121
:1007A0000F9108958B016F5F7F4F0E947B0D009723
:1007B00059F0998388831B830A832C813D81232BE5
:1007C00059F7FC011082E8CF80E0E7CFEF92FF926B
:1007D0000F931F93CF93DF936115710541F480E070
:1007E000DF91CF911F910F91FF90EF9008954115E8
:1007F0005105B1F07B01EC010C811D81040F151F27
:10080000B8010E94BE03882351F3288139818C816D
:100810009D81B701820F931F0E94410E1D830C839F
:1008200081E0DECFCF93DF93EC018881998100973F
:1008300011F00E94F20C198218821D821C821B8208
:100840001A82DF91CF910895CF93DF93EC01FB01E2
:1008500001900020E9F73197AF01461B570B0E942A
:10086000E603811103C0CE010E941204CE01DF9184
:10087000CF910895CF93DF93EC01FB014481558123
:10088000608171810E94E603811103C0CE010E9444
:100890001204CE01DF91CF910895EF92FF920F9352
:1008A0001F93CF93DF93EC017B018A01BA010E9471
:1008B000BE0381110BC0CE010E941204CE01DF9154
:1008C000CF911F910F91FF90EF9008951D830C839E
:1008D000B701888199810E94410EF0CFEF92FF927B
:1008E0000F931F93CF93DF93CDB7DEB762970FB609
:1008F000F894DEBF0FBECDBF8C01CB01F801118291
:10090000108213821282158214824AE09E012F5FA8
:100910003F4F7901B9010E94BA0BF7010190002005
:10092000E9F73197AF014E195F09B701C8010E947D
:100930004D0462960FB6F894DEBF0FBECDBFDF91B7
:10094000CF911F910F91FF90EF900895FC011182BC
:1009500010821382128215821482FB010190002002
:10096000E9F73197AF01461B570B0C944D04FC017E
:1009700080819181009711F00C94F20C08950F93EF
:100980001F93CF93DF93CDB7DEB7A4970FB6F8943C
:10099000DEBF0FBECDBF84E00E94EB019093B50394
:1009A0008093B40382E00E94EB019093B90380939B
:1009B000B80383E00E94EB019093B7038093B603E2
:1009C00085E00E94EB019093BB038093BA03BC01C6
:1009D000CE0149960E946E046091B6037091B703F0
:1009E000CE0143960E946E046091B8037091B903E2
:1009F000CE010D960E946E046091B4037091B50310
:100A0000CE0107960E946E0464E271E0CE01019669
:100A10000E94A604BE01695F7F4FCE0101960E942D
:100A20003A0466E271E00E942404BE01635F7F4FD6
:100A30000E943A0469E271E00E942404BE016D5EE6
:100A40007F4F0E943A046CE271E00E942404BE01D0
:100A5000675E7F4F0E943A046FE271E00E942404B7
:100A600018A21F8E1AA219A21CA21BA28E01015E3F
:100A70001F4F8017910759F0FC016081718161154A
:100A8000710529F044815581C8010E944D04C801B7
:100A90000E945D03C8010E94B704CE0101960E9426
:100AA000B704CE0107960E94B704CE010D960E94AE
:100AB000B704CE0143960E94B704CE0149960E9426
:100AC000B704A4960FB6F894DEBF0FBECDBFDF917A
:100AD000CF911F910F910895CF93DF9300D000D055
:100AE00000D0CDB7DEB70E94BF0441E050E061E026
:100AF00070E090E080E00E9442028091A903909112
:100B0000AA03019709F052C08091B4039091B503F4
:100B1000892B89F40E94BF0461E371E0CE01019644
:100B20000E94A604CE0101960E945D03CE010196AB
:100B30000E94B704E9CF8091B4039091B503892B4B
:100B400089F00E94BF046BE471E0CE0101960E941F
:100B5000A604CE0101960E945D03CE0101960E947B
:100B6000B704E9CF8091B4039091B503892B89F440
:100B70000E94BF046AE671E0CE0101960E94A604BD
:100B8000CE0101960E945D03CE0101960E94B7043A
:100B9000E9CF1092AA031092A90381E0809300018B
:100BA00082E090E09093A8038093A7038091A9032B
:100BB0009091AA030297A9F58091B4039091B5038F
:100BC000892B89F00E94BF046BE471E0CE0101968D
:100BD0000E94A604CE0101960E945D03CE010196FB
:100BE0000E94B704E9CF8091B4039091B503892B9B
:100BF00089F40E94BF046AE671E0CE0101960E946A
:100C0000A604CE0101960E945D03CE0101960E94CA
:100C1000B704E9CF1092AA031092A90381E0809350
:100C2000000126960FB6F894DEBF0FBECDBFDF9150
:100C3000CF9108958F929F92AF92BF92CF92DF9201
:100C4000EF92FF92CF93DF9300D000D000D0CDB7CA
:100C5000DEB70E94EA02672B682B692B09F4F4C007
:100C60000E94EA02C090A203D090A303E090A403E4
:100C7000F090A5036C157D058E059F0508F486C1CF
:100C8000C090A203D090A303E090A403F090A5032A
:100C90009B01AC012C193D094E095F0969017A01DC
:100CA0003AEFC316D104E104F10408F4D5C060930F
:100CB000A2037093A3038093A4039093A50384EFEE
:100CC00091E0A0E0B0E08093670490936804A09363
:100CD0006904B0936A0410926B0410926C04109231
:100CE0006D0410926E0480915F0490916004A09155
:100CF0006104B09162048093630490936404A093B0
:100D00006504B09366040E94EA0260935F047093E6
:100D1000600480936104909362048CEB93E00E94E2
:100D20000501843611F40E9470030E94EA02609368
:100D30005B0470935C0480935D0490935E040E9456
:100D4000EA026B017C0187E891E00E94F6024AE02A
:100D500061E070E080E090E00E9403038EE891E0A3
:100D60000E94F6024AE0C701B6010E94030380E92F
:100D700091E00E94F60280915F0490916004A0913E
:100D80006104B0916204A7019601281B390B4A0B3C
:100D90005B0BCA01B9014AE00E94030380E991E0BC
:100DA0000E94F60260915F0470916004809161047A
:100DB00090916204C0906304D0906404E090650454
:100DC000F09066046C197D098E099F094AE00E9423
:100DD000030382E991E00E94F6020E94EA024AE0DF
:100DE0000E94030384E991E00E94F60281E291E00F
:100DF0000E94F6020E94EA026B017C014B015C0139
:100E000035E0830E911CA11CB11C0E94EA026C15F6
:100E10007D058E059F0528F086169706A806B9065B
:100E2000A0F78CEB93E00E940501843611F40E9438
:100E300070030E94EA0260935F04709360048093E1
:100E400061049093620408C00E94EA026230710556
:100E50008105910508F004CF80910001882309F4F1
:100E600084C00E94BF0450E040E061E070E090E088
:100E700080E00E9442026BE971E0CE0101960E947F
:100E8000A604CE0101960E945D03CE0101960E9448
:100E9000B7048091B6039091B703892BC1F464EA3B
:100EA00071E0CE0101960E94A604CE0101960E9437
:100EB0005D03CE0101960E94B7041092000181E00B
:100EC00090E09093AA038093A9030E94CF0780919A
:100ED000B4039091B503892BC1F462EC71E0CE01AB
:100EE00001960E94A604CE0101960E945D03CE01E8
:100EF00001960E94B7041092000181E090E0909367
:100F0000AA038093A9030E946C058091BA03909173
:100F1000BB03892B51F165ED71E0CE0101960E9472
:100F2000A604CE0101960E945D03CE0101960E94A7
:100F3000B704109200018091A7039091A803019734
:100F400011F40E94EA088091A7039091A8038230CF
:100F5000910531F49093AA038093A9030E946C0534
:100F600081E0809300010E941A0626960FB6F8943D
:100F7000DEBF0FBECDBFDF91CF91FF90EF90DF902E
:100F8000CF90BF90AF909F908F9008956093A203F1
:100F90007093A3038093A4039093A50371CE1F9332
:100FA000CF93DF9300D000D000D0CDB7DEB764EF91
:100FB00071E080E090E00E94B8026FED71E0CE0138
:100FC00001960E94A604CE0101960E945D03CE0107
:100FD00001960E94B70450E040E061E070E081E0DB
:100FE00090E00E9442028091A9039091AA03019788
:100FF00009F062C00E94BF0411E08091B603909195
:10100000B703892BB1F50E94BF046BEF71E0CE01ED
:1010100001960E94A604CE0101960E945D03CE01B6
:1010200001960E94B7048091A7039091A803181617
:1010300019061CF78091BA039091BB03892BE9F242
:1010400063E272E0CE0101960E94A604CE010196F1
:101050000E945D03CE0101960E94B7040E944703DF
:1010600068EE73E080E090E00E94B8021093A6035F
:10107000C4CF8091A6038823E9F01092A603809143
:10108000A7039091A803019741F482E090E0909328
:10109000AA038093A9030E94CF078091A703909190
:1010A000A8038230910531F49093AA038093A90399
:1010B0000E946C050E94EA088091A9039091AA03FE
:1010C0000297B1F50E94BF048091B6039091B703D7
:1010D000892BC1F10E94BF0469E472E0CE01019640
:1010E0000E94A604CE0101960E945D03CE010196E6
:1010F0000E94B7048091BA039091BB03892B21F31E
:1011000063E272E0CE0101960E94A604CE01019630
:101110000E945D03CE0101960E94B7040E9447031E
:1011200068EE73E080E090E00E94B8020E94EA0856
:1011300026960FB6F894DEBF0FBECDBFDF91CF91DC
:101140001F9108958091B6039091B703892B51F5B3
:101150000E94BF046BEF71E0CE0101960E94A604CD
:10116000CE0101960E945D03CE0101960E94B70454
:101170008091BA039091BB03892B21F381E0809386
:10118000A60363E772E0CE0101960E94A604CE0199
:1011900001960E945D03CE0101960E94B7040E9451
:1011A0004703C6CF61E972E0CE0101960E94A60412
:1011B000CE0101960E945D03CE0101960E94B70404
:1011C0001092AA031092A90381E0809300010E946B
:1011D0001A06AECF0F931F93CF93DF9300D000D0AA
:1011E00000D0CDB7DEB76AEB72E0CE0101960E9467
:1011F000A604CE0101960E945D03CE0101960E94D5
:10120000B70441E050E061E070E081E090E00E94CE
:1012100042020E94BF048091B6039091B703892BCC
:1012200039F566ED72E0CE0101960E94A604CE016A
:1012300001960E945D03CE0101960E94B7040E94B0
:1012400047038091B6039091B703892B89F40E94DC
:10125000BF0466ED72E0CE0101960E94A604CE01A5
:1012600001960E945D03CE0101960E94B704E9CF6A
:101270008091B4039091B503892B39F56CEF72E03E
:10128000CE0101960E94A604CE0101960E945D0344
:10129000CE0101960E94B7040E9447038091B403D7
:1012A0009091B503892B89F40E94BF046CEF72E022
:1012B000CE0101960E94A604CE0101960E945D0314
:1012C000CE0101960E94B704E9CF41E050E070E002
:1012D00060E081E090E00E9442020E94BF0441E091
:1012E00050E070E060E081E090E00E94420202E0A5
:1012F00010E08091B8039091B903892B39F10E94D5
:10130000BF0441E050E070E060E081E090E00E94C6
:10131000420267E173E0CE0101960E94A604CE016D
:1013200001960E945D03CE0101960E94B704809150
:10133000BA039091BB03892BE1F21093AA030093A7
:10134000A9030E9447030E946C05D3CF8091B80384
:101350009091B903892B89F40E94BF0467E473E07C
:10136000CE0101960E94A604CE0101960E945D0363
:10137000CE0101960E94B704E9CF81E090E09093FE
:10138000A8038093A70382E090E09093AA03809340
:10139000A9030E94CF0726960FB6F894DEBF0FBEB2
:1013A000CDBFDF91CF911F910F9108951F920F92A2
:1013B0000FB60F9211242F933F934F935F936F9328
:1013C0007F938F939F93AF93BF93EF93FF938CEB98
:1013D00093E00E943301FF91EF91BF91AF919F91F4
:1013E0008F917F916F915F914F913F912F910F90CE
:1013F0000FBE0F901F9018951F920F920FB60F926D
:1014000011242F938F939F93EF93FF93E091CC033D
:10141000F091CD038081E091D203F091D30382FD5E
:101420001BC090818091D5038F5F8F732091D6036D
:10143000821741F0E091D503F0E0E454FC4F958F22
:101440008093D503FF91EF919F918F912F910F90F2
:101450000FBE0F901F9018958081F4CF1F920F92AE
:101460000FB60F9211242F933F938F939F93AF93B7
:10147000BF938091AC039091AD03A091AE03B09166
:10148000AF033091AB0323E0230F2D3758F50196BE
:10149000A11DB11D2093AB038093AC039093AD03CA
:1014A000A093AE03B093AF038091B0039091B103CA
:1014B000A091B203B091B3030196A11DB11D809319
:1014C000B0039093B103A093B203B093B303BF9161
:1014D000AF919F918F913F912F910F900FBE0F90E1
:1014E0001F90189526E8230F0296A11DB11DD2CF9B
:1014F000ECEBF3E01382128288EE93E0A0E0B0E020
:1015000084839583A683B7838BE091E09183808366
:1015100085EC90E09587848784EC90E097878687B8
:1015200080EC90E0918B808B81EC90E0938B828BB0
:1015300082EC90E0958B848B86EC90E0978B868B89
:10154000118E128E138E148EE9E5F4E01682178246
:1015500010861186128613861486158616861786BF
:10156000108A118A128A138A148A158A65E773E031
:101570008FE994E00C94A604789484B5826084BDCD
:1015800084B5816084BD85B5826085BD85B5816087
:1015900085BD80916E00816080936E001092810005
:1015A00080918100826080938100809181008160C0
:1015B0008093810080918000816080938000809181
:1015C000B10084608093B1008091B000816080930D
:1015D000B00080917A00846080937A0080917A00D4
:1015E000826080937A0080917A00816080937A0093
:1015F00080917A00806880937A001092C1001092E6
:101600009B0410929C0410929D0410929E041092D0
:101610005B0410925C0410925D0410925E040E94C0
:10162000EA026B017C014B015C0188EB880E8BE0C8
:10163000981EA11CB11C0E94EA026C157D058E0546
:101640009F0528F086169706A806B906A0F768EE4B
:1016500073E080E090E00E94B8020E948D000E943A
:10166000EA0260935B0470935C0480935D04909342
:101670005E048AE893E00E94F6020E94EA026B018F
:101680007C014B015C018AE0880E911CA11CB11CFD
:101690000E94EA026C157D058E059F0528F08616CE
:1016A0009706A806B906A0F781E080936F040E9410
:1016B000EA0260935B0470935C0480935D049093F2
:1016C0005E048BE993E00E94F60261E086E00E94EE
:1016D000620261E087E00E94620261E088E00E94AD
:1016E000620261E089E00E94620260E08091BA03D8
:1016F0000E94620260E08091B8030E94620260E092
:101700008091B6030E94620260E08091B4030E945F
:1017100062020E948D00C0E0D0E00E941A0620976D
:10172000E1F30E941F018823C1F30E940000F5CF5E
:101730008FE994E00C94B704FC0188279927E8947A
:1017400021912032E9F3293010F02E30C8F32B32EA
:1017500041F02D3239F4689404C00E94C50B820F09
:10176000911D219120532A30C0F31EF4909581954C
:101770009F4F0895BB274A3031F4992322F4BDE2EC
:10178000909581959F4F0C94CE0B7AE0979F902D6A
:10179000879F802D910D11240895BB27FB015527AC
:1017A000AA27880F991FAA1FA41710F0A41B8395BE
:1017B0005051B9F7A05DAA3308F0A95DA193009735
:1017C00079F7B111B1931192CB010C94E70BDC01C5
:1017D000FC01672F71917723E1F7329704C07C9168
:1017E0006D9370836291AE17BF07C8F30895A1E2AD
:1017F0001A2EAA1BBB1BFD010DC0AA1FBB1FEE1F8B
:10180000FF1FA217B307E407F50720F0A21BB30BD5
:10181000E40BF50B661F771F881F991F1A9469F751
:1018200060957095809590959B01AC01BD01CF01AD
:1018300008952F923F924F925F926F927F928F9274
:101840009F92AF92BF92CF92DF92EF92FF920F934F
:101850001F93CF93DF93CDB7DEB7CA1BDB0B0FB659
:10186000F894DEBF0FBECDBF09942A883988488816
:101870005F846E847D848C849B84AA84B984C884AC
:10188000DF80EE80FD800C811B81AA81B981CE0FA3
:10189000D11D0FB6F894DEBF0FBECDBFED01089588
:1018A000EE0FFF1F0590F491E02D09940F931F9305
:1018B000CF93DF938230910510F482E090E0E091C5
:1018C000A704F091A80430E020E0B0E0A0E0309759
:1018D00099F42115310509F44AC0281B390B24302D
:1018E0003105D8F58A819B816115710589F1FB016C
:1018F00093838283FE0111C0408151810281138153
:1019000048175907E0F04817590799F4109761F004
:1019100012960C93129713961C933296CF01DF9177
:10192000CF911F910F9108950093A7041093A804DD
:10193000F4CF2115310551F04217530738F0A901B2
:10194000DB019A01BD01DF01F801C1CFEF01F9CF41
:101950009093A8048093A704CDCFFE01E20FF31F5C
:10196000819391932250310939832883D7CF2091D5
:10197000A5043091A604232B41F42091030130915A
:1019800004013093A6042093A50420910101309115
:1019900002012115310541F42DB73EB740910501F3
:1019A00050910601241B350BE091A504F091A6048B
:1019B000E217F307A0F42E1B3F0B2817390778F026
:1019C000AC014E5F5F4F2417350748F04E0F5F1F85
:1019D0005093A6044093A504819391939FCFF0E088
:1019E000E0E09CCFCF93DF930097E9F0FC013297C2
:1019F00013821282A091A704B091A804ED0130E0F7
:101A000020E01097A1F420813181820F931F209153
:101A1000A5043091A6042817390709F061C0F09396
:101A2000A604E093A504DF91CF910895EA01CE17B3
:101A3000DF07E8F54A815B819E0141155105B1F749
:101A4000E901FB83EA8349915991C40FD51FEC1733
:101A5000FD0761F4808191810296840F951FE90151
:101A600099838883828193819B838A83F0E0E0E07D
:101A700012968D919C9113970097B9F52D913C91F9
:101A80001197CD010296820F931F2091A5043091EA
:101A9000A6042817390739F6309751F51092A80493
:101AA0001092A704B093A604A093A504BCCFD3833F
:101AB000C28340815181840F951FC817D90761F4F3
:101AC0004E5F5F4F88819981480F591F5183408332
:101AD0008A819B81938382832115310509F0B0CFE0
:101AE000F093A804E093A7049ECFFD01DC01C0CFD2
:101AF00013821282D7CFB0E0A0E0E1E8FDE00C94C1
:101B00001B0C8C01009751F4CB010E94560C8C01E8
:101B1000C801CDB7DEB7E0E10C94370CFC01E60F4D
:101B2000F71F9C0122503109E217F30708F49DC00A
:101B3000D901CD91DC911197C617D70798F0C53020
:101B4000D10530F3CE0104978617970708F3C61B1B
:101B5000D70B2297C193D1936D937C93CF010E94B1
:101B6000F20CD6CF5B01AC1ABD0A4C018C0E9D1E47
:101B7000A091A704B091A804512C412CF12CE12C88
:101B8000109731F58091A5049091A60488159905C8
:101B900009F05CC04616570608F058C08091010154
:101BA00090910201009741F48DB79EB740910501D5
:101BB00050910601841B950BE817F90708F055C0F2
:101BC000F093A604E093A504F90171836083A0CF8C
:101BD0008D919C91119712966C90129713967C9010
:101BE0001397A815B90559F56C0142E0C40ED11C34
:101BF000CA14DB0420F1AC014A195B09DA01129620
:101C0000159780F06282738251834083D9016D936E
:101C10007C93E114F10471F0D7011396FC93EE93D9
:101C2000129776CF22968C0F9D1FF90191838083A6
:101C3000F301EFCFF093A804E093A70469CF48160F
:101C4000590608F42C017D01D3019ACFCB010E94E3
:101C5000560C7C01009749F0AE01B8010E94380E85
:101C6000C8010E94F20C870153CF10E000E050CF72
:101C7000FB01DC0102C001900D9241505040D8F7A9
:101C80000895FB01DC0101900D920020E1F7089519
:101C900010E0C2E6D0E004C0FE010E94500C219684
:0A1CA000C336D107C9F7F894FFCF4F
:101CAA00010000A9048000000000005501B500E20F
:101CBA0000A2011301F1000501414C41524D41219D
:101CCA00000D0A0050002C49002C45002C4D002C18
:101CDA0000244553504552414E444F2043494552F2
:101CEA0052452050554552544126002445535045EB
:101CFA0052414E444F20415045525455524120447E
:101D0A0045205055455254412600244553504552CA
:101D1A00414E444F204349455252452044452050A4
:101D2A0055455254412600564D4450455F003A32BB
:101D3A003A007C005F564D4450450024494E4943C1
:101D4A00494F2600245045525349414E4120455897
:101D5A00544552494F52202D20414249455254413F
:101D6A00260024505545525441202D2041424945D0
:101D7A00525441260024414C41524D41212600240F
:101D8A0046554E43494F4E205045525349414E41C4
:101D9A00204558544552494F522600244553504530
:101DAA0052414E444F204349455252452044452012
:101DBA005045525349414E41204558544552494F86
:101DCA00522600244154454E43494F4E3A20444935
:101DDA00535041524F20414C41524D41204D4F5694
:101DEA00494D49454E544F260024455350455241CA
:101DFA004E444F20415045525455524120444520AB
:101E0A005045525349414E41204558544552494F35
:101E1A00522600244154454E43494F4E3A20414CE4
:101E2A0041524D41204D4F56494D49454E544F263A
:101E3A0000244349434C4F20434F4D504C45544F87
:101E4A002E20564F4C5649454E444F20414C20496E
:101E5A004E4943494F2E2E2E26002446554E4349BD
:101E6A004F4E205045525349414E4120494E544508
:101E7A0052494F522600244154454E43494F4E3A47
:101E8A00205045525349414E4120455854455249E4
:101E9A004F5220414249455254412600244154455B
:101EAA004E43494F4E3A20505545525441204142E3
:101EBA0049455254412600244553504552414E4407
:101ECA004F204150455254555241204445205045D7
:101EDA00525349414E4120494E544552494F52208E
:101EEA0028323537292600244553504552414E445D
:101EFA004F204349455252452044452050455253AC
:101F0A0049414E4120494E544552494F52202832A8
:101F1A003633292600494E475245534F53204841EC
:101F2A0042494C495441444F5300564D4450565F20
:101F3A00317C315F564D4450560A00564D4450523A
:021F4A005F0036
:107E0000112484B714BE81FFF0D085E080938100F7
:107E100082E08093C00088E18093C10086E0809377
:107E2000C20080E18093C4008EE0C9D0259A86E02C
:107E300020E33CEF91E0309385002093840096BBD3
:107E4000B09BFECF1D9AA8958150A9F7CC24DD24C4
:107E500088248394B5E0AB2EA1E19A2EF3E0BF2EE7
:107E6000A2D0813461F49FD0082FAFD0023811F036
:107E7000013811F484E001C083E08DD089C08234E0
:107E800011F484E103C0853419F485E0A6D080C0E4
:107E9000853579F488D0E82EFF2485D0082F10E0AE
:107EA000102F00270E291F29000F111F8ED06801E7
:107EB0006FC0863521F484E090D080E0DECF843638
:107EC00009F040C070D06FD0082F6DD080E0C81688
:107ED00080E7D80618F4F601B7BEE895C0E0D1E017
:107EE00062D089930C17E1F7F0E0CF16F0E7DF06D8
:107EF00018F0F601B7BEE89568D007B600FCFDCFD4
:107F0000A601A0E0B1E02C9130E011968C91119780
:107F100090E0982F8827822B932B1296FA010C0160
:107F200087BEE89511244E5F5F4FF1E0A038BF0790
:107F300051F7F601A7BEE89507B600FCFDCF97BE46
:107F4000E89526C08437B1F42ED02DD0F82E2BD052
:107F50003CD0F601EF2C8F010F5F1F4F84911BD097
:107F6000EA94F801C1F70894C11CD11CFA94CF0C13
:107F7000D11C0EC0853739F428D08EE10CD085E9AC
:107F80000AD08FE07ACF813511F488E018D01DD067
:107F900080E101D065CF982F8091C00085FFFCCF94
:107FA0009093C60008958091C00087FFFCCF809118
:107FB000C00084FD01C0A8958091C6000895E0E648
:107FC000F0E098E1908380830895EDDF803219F02E
:107FD00088E0F5DFFFCF84E1DECF1F93182FE3DFCA
:107FE0001150E9F7F2DF1F91089580E0E8DFEE27F6
:047FF000FF270994CA
:027FFE00040479
:0400000300007E007B
:00000001FF